:020000040800F2
:10000000C0FC0020390300082D970008016E00088D
:1000100029970008DF19000819C400080000000033
:10002000000000000000000000000000790200084D
:10003000D523000800000000D502000885990008BB
:10004000530300086999000853030008530300088C
:100050005303000853030008D72300085303000884
:1000600053030008E1230008EB23000853030008B2
:1000700041210008530300085303000853030008FC
:1000800053030008530300085303000853030008F8
:10009000E51900085303000853030008F52300087E
:1000A00053030008530300085303000853030008D8
:1000B00053030008530300085303000853030008C8
:1000C00053030008530300085303000853030008B8
:1000D000530300086D9F000853030008859F000824
:1000E0005303000853030008530300085303000898
:1000F0005303000853030008530300085303000888
:100100005303000853030008530300085303000877
:100110005303000853030008799B000853030008A9
:10012000530300085121000861210008530300080F
:100130005303000853030008530300085303000847
:10014000F51900085303000853030008319700080D
:100150005303000871210008812100089D9F0008B9
:100160005303000853030008530300085303000817
:100170005303000853030008530300080000000065
:10018000530300085303000800F002F800F065F87C
:100190000AA090E8000C82448344AAF10107DA45E2
:1001A00001D100F05AF8AFF2090EBAE80F0013F0CF
:1001B000010F18BFFB1A43F001031847F07E01003E
:1001C000107F01000A444FF0000C10F8013B13F0BF
:1001D000070408BF10F8014B1D1108BF10F8015BA0
:1001E000641E05D010F8016B641E01F8016BF9D193
:1001F00013F0080F1EBF10F8014BAD1C0C1B09D1EA
:100200006D1E58BF01F801CBFAD505E014F8016B5B
:1002100001F8016B6D1EF9D59142D6D370470000ED
:100220000023002400250026103A28BF78C1FBD8FF
:10023000520728BF30C148BF0B6070471FB516F08A
:100240001DFF9DE8030000F0EDFF00F0A7FF1FBDBC
:1002500010B5002001F027F810BD01F092F811460A
:10026000FFF7ECFF13F006FB01F0B0F803B4FFF763
:10027000EFFF03BC01F07EF82C4B19680868B0E86A
:10028000F04F80F30988BFF36F8F4FF0000080F3C9
:10029000118870470000000008480068006880F37B
:1002A00008884FF0000080F3148862B661B6BFF38F
:1002B0004F8FBFF36F8F00DF00BF00BF08ED00E07E
:1002C000DFF80C00016841F470010160704700BF65
:1002D00088ED00E0EFF30980BFF36F8F134B1A68CE
:1002E0001EF0100F08BF20ED108A20E9F04F1060BB
:1002F00009B44FF0500080F31188BFF34F8FBFF364
:100300006F8F14F02BFC4FF0000080F3118809BCB4
:1003100019680868B0E8F04F1EF0100F08BFB0EC85
:10032000108A80F30988BFF36F8F7047580500204B
:10033000EFF30580704700000948804709480047EF
:10034000FEE7FEE7FEE7FEE7FEE7FEE7FEE7FEE785
:10035000FEE7FEE704480549054A064B70470000E2
:100360006D9A000889010008C0BC0020C0FC002074
:10037000C0DC0020C0DC002070B405880E88446812
:10038000D1F804C05368B54208D1408849888842F2
:1003900001BF11888D425188884203D070BC6FF034
:1003A0000200704705FB00F1880827D094ED001A81
:1003B000DCED000A94ED010ADCED011A31EE201AA1
:1003C000D4ED020A70EE211A9CED020A83ED001AA8
:1003D000C3ED011A94ED031ADCED031A30EE800A26
:1003E000401E71EE210A83ED020A04F11004C3EDF0
:1003F000030A03F110030CF1100CD7D111F0030024
:1004000030D0B0F1004F30D200282BDD211F1B1F50
:10041000ACF1040210F0010F0AD091ED010AD2ED07
:10042000010A091D121D30EE200A83ED010A1B1D71
:10043000400817D091ED010AD2ED010A401E30EEBE
:10044000200A83ED010A91ED020AD2ED020A01F1C0
:10045000080102F1080230EE200A83ED020A03F1DE
:100460000803E7D170BC00207047B4EC010A401EBD
:10047000FCEC010A30EE200AA3EC010AF5D1F1E709
:1004800001804280436070472DE9F34F84B00498A7
:1004900040680090486801900498B0F800E04588F2
:1004A000DFEDFE0A00200290B0EE600AAE4506D1F4
:1004B00008884988884204BF7146864504D06FF099
:1004C000020006B0BDE8F08F01985FEA010C18BF8A
:1004D000B7EE001A3DD000BFBEEB0C0117D0B1F152
:1004E000004F80F01F82002911DD021F11F0010F63
:1004F0001CBFC2ED010A121D4B1006D0C2ED010A4D
:10050000C2ED020A08325B1EF8D100EB8100BCF19B
:100510000102A0EC011A19D0B2F1004F80F008825C
:10052000002A13DD031F12F0010F1CBFC3ED010AE7
:100530001B1D511008D000BFC3ED010AC3ED020A14
:10054000491E03F10803F7D100EB8200BCF1010C56
:10055000C2D14FF000080395002D14BFB0EE602A01
:10056000002000F0BF8100BF009908FB05F001EBFF
:10057000800B0199DBED002A01EB80000346F0EED1
:10058000421AC64552D9AEEB0802ABEB850112F018
:10059000010F17D001EB850191ED000AB5EEC00AFD
:1005A000F1EE10FA07DDB4EEE10AF1EE10FA09DD22
:1005B000F0EE401A06E0B1EE400AF4EEC01AF1EE99
:1005C00010FAF5D3521031D001EB850C9CED000AE6
:1005D000B5EEC00AF1EE10FA05DDB4EEE10AF1EE77
:1005E00010FA09DD06E0B1EE400AF4EEC01AF1EEB1
:1005F00010FA01D2F0EE401A01EBC50191ED000AAC
:10060000B5EEC00AF1EE10FA05DDB4EEE10AF1EE46
:1006100010FA09DD06E0B1EE400AF4EEC01AF1EE80
:1006200010FA01D2F0EE401A521ECDD1F5EEC01AEA
:10063000F1EE10FA00F07381F5EEC02A0126F1EE1A
:1006400010FA0099D4BFB1EE620AB0EE620AB4EEBD
:10065000610AF1EE10FA1CBFAEEB0802B2F1010C18
:1006600047D005FB08F201EB820292ED001A00BFB1
:10067000B0EE410A05FB06F4B5EEC00A00EB8404B7
:10068000F1EE10FACCBFF0EE400AF1EE400AF4EEC3
:10069000610AF1EE10FA28D1B5EB080C11D0BCF1CB
:1006A000004F7DD2BCF1000F0BDD00BF92ED000AC0
:1006B000D1ED000ABCF1010CE2EC010AA1EC010A47
:1006C000F4D129000ED0B1F1004F6AD2002909DD22
:1006D00094ED000AD0ED000A491EE4EC010AA0ECFA
:1006E000010AF5D1012002900BE0761CBCF1010C4F
:1006F000BED10298012804D0F5EEC02AF1EE10FA1E
:100700007ED09BED000AB5EB08009A465946064696
:1007100022D0B0F1004F74D200281DDD091F10F067
:10072000010F06D0F0EE400A80EEA01A81ED011A0A
:10073000091D401010D000BFD1ED010A401E80EE0F
:10074000801A81ED011A91ED021AC1EE000AC1ED85
:10075000020A01F10801EFD1280026D0B0F1004FC4
:100760007ED2002821DDAAF1040110F0010F06D08D
:10077000D1ED010A80EE801A81ED011A091D4010A9
:1007800013D000BFD1ED010A401E80EE801A81ED2A
:10079000011AD1ED020A80EE801A81ED021A01E001
:1007A000CBE0D6E001F10801ECD1DDE900124FF019
:1007B00000095FEA0E0773D0C14504BF01EB860153
:1007C00002EB850274D091ED000ADC465046331EE0
:1007D00035D01C46B6F1004F7ED2002C2FDD0B1F0A
:1007E000ABF1040C16F0010F0FD0F0EE400ADCED77
:1007F000011AB0EE601A00EEE11A83ED011A01E071
:100800008DE0B1E01B1D0CF1040C741015D000BF7D
:10081000D3ED010A9CED011A40EE410AC3ED010A35
:10082000D3ED020A9CED021A0CF1080C40EE410ACD
:10083000C3ED020A0833641EEAD101EB86012B00E6
:1008400036D0B3F1004F72D2002B31DDA2F1040C8F
:10085000AAF1040013F0010F0CD0DCED010A00E056
:100860008BE090ED011A001D40EE410ACCED010A2B
:100870000CF1040C5C1019D0DCED010A90ED011AAA
:1008800040EE410ACCED010ADCED020A90ED021ABD
:10089000083040EE410ACCED020A03E000000000FF
:1008A0000DE005E0641E0CF1080CE5D102EB8302BB
:1008B00001EB88017F1E09F101097FF47DAF0098EB
:1008C00008F10108001D00900398401E03907FF47A
:1008D0004BAE0299012900E058E004BF06B0BDE824
:1008E000F08F00BFB5EEC00AF1EE10FA7FF4E9AD6B
:1008F00004990EFB05F3002B4A684FF000010BD959
:1009000002EB810C9CED000AB5EEC00AF1EE10FA84
:1009100002D1491C8B42F3D88B427FF4D2AD6FF0E9
:100920000400CEE5E0EC010A491EFBD1EFE538E01A
:10093000E0EC010A521EFBD108E692ED000AD1ED6F
:10094000000ABCF1010CE2EC010AA1EC010AF4D1AD
:10095000B7E694ED000AD0ED000A491EE4EC010A66
:10096000A0EC010AF5D1BDE6D1ED000A401E80EEF3
:10097000801AA1EC011AF7D1EEE6D3ED000A401E71
:1009800080EE801AA3EC011AF7D10EE7BCEC011A35
:10099000D1ED000A5B1E40EE410AE1EC010AF5D1FF
:1009A0004DE7B0EC011AD2ED000A5B1E40EE410AA1
:1009B000E2EC010AF5D17BE72DE9F04F82B0466801
:1009C00053680193058847884B8800200090088869
:1009D000874201BFB2F800C06545528893421EBFEE
:1009E0006FF0020002B0BDE8F08F9FED412A4FEAA0
:1009F000970EC7F3400B00BFDDE9000202EB800A4F
:100A00004A6898464FF00009B0EE420AB4465FEAE1
:100A10000E0025D092ED001ADCED001A02EB8302E5
:100A2000DCED010A01EE810A92ED001A02EB83026D
:100A3000401ED2ED001A02EB830200EE810A9CED0B
:100A4000021ADCED030A00040CF1100C000C01EE9C
:100A5000210A92ED001A02EB830200EE810AD9D13D
:100A600017F0030026D0ACF10404A2EB830210F0CF
:100A7000010F08D002EB8302D4ED010A92ED001AB7
:100A8000241D00EE810A5FEA0B0013D002EB830CF9
:100A9000D4ED010A9CED001A02EBC302401E00EEE9
:100AA000810AD4ED020A92ED001A04F1080400EE66
:100AB000810AEBD109F10100AAEC010A1FFA80F9C1
:100AC000486800EB8902A8F101001FFA80F8B8F12C
:100AD000000F99D1009806EB8706184480B2009069
:100AE000681E05042D0C87D102B00020BDE8F08FF0
:100AF0000000000070B405880E884468D1F804C076
:100B00005368B54208D140884988884201BF11889E
:100B10008D425188884203D070BC6FF0020070474C
:100B200005FB00F1880827D094ED001ADCED000ADF
:100B300094ED010ADCED011A31EE601AD4ED020ADF
:100B400070EE611A9CED020A83ED001AC3ED011AE2
:100B500094ED031ADCED031A30EEC00A401E71EE6C
:100B6000610A83ED020A04F11004C3ED030A03F1E4
:100B700010030CF1100CD7D111F0030030D0B0F1FC
:100B8000004F30D200282BDD211F1B1FACF10402C7
:100B900010F0010F0AD091ED010AD2ED010A091DF2
:100BA000121D30EE600A83ED010A1B1D400817D0AC
:100BB00091ED010AD2ED010A401E30EE600A83ED8C
:100BC000010A91ED020AD2ED020A01F1080102F1D7
:100BD000080230EE600A83ED020A03F10803E7D150
:100BE00070BC00207047B4EC010A401EFCEC010A06
:100BF00030EE600AA3EC010AF5D1F1E72DE9F04FE0
:100C000002884768B0F802804888D1F8049082B022
:100C10004FF0000A1646824207BF098888456FF0E8
:100C2000020002B018BFBDE8F08F4FEA980B02EB4C
:100C300042000190C8F34000CDF8000009EB8A01A2
:100C4000BBF1000F33D0019801EB820C01EB800463
:100C50003B46E64601EBC2054FEA0B0093ED000A66
:100C6000401E81ED000A93ED010A01EB02118CEDAB
:100C7000000A93ED020A0CEB021C85ED000A93EDCD
:100C8000030A05EB021584ED000A04EB021403F1DC
:100C90001003E3D10EEB820000EB820000EB820137
:100CA000ABF10100504307EB0B1701EB001118F0FB
:100CB000030C21D03B1FA1EB82011CF0010F06D0D9
:100CC00093ED010A01EB82011B1D81ED000A0098E2
:100CD00080B100BF93ED010A01EB820401EBC20178
:100CE00084ED000A93ED020A401E81ED000A03F133
:100CF0000803EFD107EB8C070AF101001FFA80FA15
:100D0000701E0604360C99D102B00020BDE8F08FA9
:100D1000DFED460A60EE200AF5EEC00AF1EE10FAA9
:100D200038BFF1EE600ABDEEE01ADFF808C1F7EE59
:100D3000004AB0EE085AB8EEC11AB5EEC00A70EE1D
:100D4000C10A9FED3B1A20EE811AFCEEC10A10EE9B
:100D5000902AC2F3080200EE902A02F180030CEB05
:100D60008202F8EE600AD2ED001AC3F308030CEB1E
:100D70008303F1EE612A71EE600AD2ED011A93ED60
:100D8000001A93ED012AF1EE613A74EEE01A32EEA8
:100D9000413A61EE811A40EE821A32EEA32ADFED6B
:100DA000261A22EE214AB0EE002A42EE223A02EE44
:100DB000434A23EE053A03EEE13A00EE843A34EE7C
:100DC000E04A20EE833A02EEA13A00EE831A81ED6A
:100DD000001A92ED001AD2ED013AD3ED002A24EE6A
:100DE000014A93ED013A00EEA34A32EE834A73EED4
:100DF000C13A02EE223A24EE214A02EE634A63EE41
:100E0000853A43EE613A40EE843A20EEA32A02EEA0
:100E1000A12A00EE821AF1EE10FA80ED001A3CBF12
:100E2000B1EE410A80ED000A70470000610B363BCD
:100E30000000004450770108DB0F493C70B50646BE
:100E400000F0D0F9056806F10B0020F00704B44269
:100E50009CBF002070BD2B466A68BAB11068A042E2
:100E600010D304F1080188423CBF5068586007D392
:100E70005168101941601168091B016058601460C5
:100E8000101D70BD13465268002AE7D1214628463E
:100E900000F0B4F90028DED170BD70B50446051F1E
:100EA00000F0A0F90068002C14BF446870BD002C4D
:100EB00018BFAC423CBF20466468F8D301680A18EA
:100EC000AA4218BF456003D12A6805461144016053
:100ED00028684119A1421CBF6C6070BD61686960DF
:100EE00021680844286070BD53EA020C00F0698054
:100EF0002DE9F04B4FF00006002B1FBFB3FA83F52E
:100F000003FA05F424FA05F65E4012BF1643B2FA5E
:100F100082F502FA05F4C5F120051EBF22FA05FC90
:100F200044EA0C04203556EA044C4FEA144418BF36
:100F3000641C4FF000084FF00009904271EB030C65
:100F400039D3002919BFB1FA81F701FA07F6B0FACF
:100F500080F700FA07F6C7F120071EBF20FA07FC4A
:100F600046EA0C062037B6FBF4FCA7EB0507103F5A
:100F700007F01F0BCBF120060CFA0BFB2CFA06F640
:100F800044BFB3460026202FA4BF5E464FF0000B9F
:100F90005BEA060C08BF4FF0010B19EB0B09ABFB2A
:100FA000027C48EB0608C01B06FB02CC0BFB03CC03
:100FB00071EB0C01C1E70B46024641464846BDE8CD
:100FC000F08B13B54FF000004FF00001AFF300803D
:100FD000BDE81C4070472DE9F041074615460E4616
:100FE0001020FFF72BFF04000AD06760C4E90265F8
:100FF00000F0FCF80168216004600020BDE8F08189
:101000000120FBE7032A40F2308010F0030C00F0CF
:10101000158011F8013BBCF1020F624498BF11F832
:1010200001CB00F8013B38BF11F8013BA2F10402EB
:1010300098BF00F801CB38BF00F8013B11F0030363
:1010400000F02580083AC0F0088051F8043B083AC7
:1010500051F804CBA0E80810F5E7121D5CBF51F869
:10106000043B40F8043BAFF30080D20724BF11F8E3
:10107000013B11F801CB48BF11F8012B24BF00F848
:10108000013B00F801CB48BF00F8012B704710B5B9
:10109000203AC0F00B80B1E81850203AA0E8185070
:1010A000B1E81850A0E81850BFF4F5AF5FEA027C31
:1010B00024BFB1E81850A0E8185044BF18C918C0A0
:1010C000BDE810405FEA827C24BF51F8043B40F841
:1010D000043B08BF7047D20728BF31F8023B48BF26
:1010E00011F8012B28BF20F8023B48BF00F8012B64
:1010F000704702F0FF0343EA032242EA024200F093
:1011000002B84FF000020429C0F0128010F0030C66
:1011100000F01B80CCF1040CBCF1020F18BF00F8EA
:10112000012BA8BF20F8022BA1EB0C0100F00DB899
:101130005FEAC17C24BF00F8012B00F8012B48BFF7
:1011400000F8012B70474FF0000200B5134694469B
:101150009646203922BFA0E80C50A0E80C50B1F10F
:101160002001BFF4F7AF090728BFA0E80C5048BF23
:101170000CC05DF804EB890028BF40F8042B08BFC1
:10118000704748BF20F8022B11F0804F18BF00F8BD
:10119000012B7047704770477047000070B5064CD0
:1011A0007C44064D7D4403E0206820448047241D94
:1011B000AC42F9D170BD0000286F0100346F01000E
:1011C0002DE9F04117460E46054633B107FB03549F
:1011D000E41B2046B047A542FAD1A5F10800BDE8BE
:1011E000F08100000048704768BC0020004870474C
:1011F00098BC0020704770477047704738B5044668
:101200000A4600206946AFF30080002808BF38BDB9
:1012100002460099204600F06FF8012038BD0120F9
:1012200000F0A1B8F8B5AFF30080054600200C46E9
:10123000102000BF0646A819A0420DD932466946C3
:101240000020AFF30080070008BF00F08CF8009882
:10125000A04218BF0546C419FFF7C4FF0560074642
:10126000F01D20F007004619284600F00AF8B442A5
:1012700008BFF8BDA21B31463868BDE8F84000F051
:101280003BB800210160C0E9011070471020704791
:1012900010B500F02DF8006810BD10B5044600F040
:1012A00027F8046010BD2DE9F0410646FFF79EFFC8
:1012B0008046454613E016B1E068B0420ED1206882
:1012C0002860D4E90101D8F8007088472046FFF76C
:1012D000E4FDD8F80000B842EBD100E025462C68C8
:1012E000002CE8D1BDE8F0810048704760BC0020C8
:1012F0000048704760BC0020034640688C460028C8
:1013000018BF88423CBF03464068F8D318681844A9
:10131000884207D00CF1030020F00700001D411A9D
:10132000521A0146081D0A60FFF7B7BD1FB584B009
:1013300000200A9C06AB04AA02A90094AFF3008027
:1013400018B1DDE9020108B010BD0348204000F0EB
:101350005FF800200146F6E70000207C002801D05D
:1013600000F008B8704710B500F05AF8BDE810401A
:10137000FFF7F4BF01491820ABBEFEE726000200CC
:1013800070477546FFF7B0FFAE4605006946534605
:1013900020F00700854618B020B5FEF7DBFFBDE85A
:1013A00020404FF000064FF000074FF000084FF0CC
:1013B000000B21F00701AC46ACE8C009ACE8C0095D
:1013C000ACE8C009ACE8C0098D46704710B50446CA
:1013D000AFF300802046BDE81040FEF747BF70B570
:1013E00005460C460A2000E06D1C00F041F835B1BE
:1013F00028780028F8D102E0641C00F039F814B114
:1014000020780028F8D1BDE870400A2000F030B8FC
:1014100010B500F035F8BDE81040FFF79FBF0000A1
:1014200010B5012805D0002103A0FFF7D8FF012047
:1014300010BD09A1F8E7000053494752544D454DEE
:101440003A204F7574206F662068656170206D6565
:101450006D6F7279000000003A2048656170206D60
:10146000656D6F727920636F727275707465640058
:1014700008B569468DF800000320ABBE08BD00002A
:1014800010B5022803D0410103D50DA112E00020C0
:1014900010BD010101D50FA10CE0C10001D511A1C2
:1014A00008E0810001D512A104E0400001D513A19C
:1014B00000E0002115A0FFF792FF012010BD000001
:1014C000496E76616C6964204F7065726174696FF2
:1014D0006E000000446976696465204279205A658F
:1014E000726F00004F766572666C6F7700000000C7
:1014F000556E646572666C6F77000000496E6578A2
:1015000061637420526573756C74000053494746DB
:1015100050453A2041726974686D6574696320654D
:101520007863657074696F6E3A20000010B501220F
:101530001021024802F02AFD10BD00000000024008
:1015400010B500221021024802F020FD10BD00005D
:101550000000024010B501221146024802F016FDBB
:1015600010BD00000004024010B500220121024815
:1015700002F00CFD10BD00000004024010B504464E
:1015800000BF204611F0F4FE0028FAD110BD000083
:1015900010B50446FFF7D4FF922000F057F9062259
:1015A0009549122000F032F9FFF7C0FF92484078C9
:1015B000000200B290490978084390490880084623
:1015C000B0F9000000EE100AB8EEC00A8C48D0ED69
:1015D000000A20EE200AD4ED080A20EE200A84ED4D
:1015E000000A8548C078000200B283498978084320
:1015F000824908800846B0F9000000EE100AB8EEF3
:10160000C00A7F48D0ED000A20EE200AD4ED080A77
:1016100020EE200A84ED010A77484079000200B2EA
:10162000754909790843754908800846B0F90000F2
:1016300000EE100AB8EEC00A7148D0ED000A20EEA4
:10164000200AD4ED080A20EE200A84ED020AFFF7F2
:101650008BFF08226849002000F0D8F8FFF77AFFD6
:10166000654800780F284FD166480078F0B362488B
:10167000C078000200B26049897808435F49088059
:1016800094ED090A0846B0F9000000EE900AF8EE61
:10169000E00A5D4890ED001A10EE810A84ED030A1D
:1016A00055484079000200B253490979084353492B
:1016B000088094ED0A0A0846B0F9000000EE900A8E
:1016C000F8EEE00A504890ED001A10EE810A84ED21
:1016D000040A4948C079000200B2474989790843A1
:1016E0004649088094ED0B0A084600E00DE0B0F989
:1016F000000000EE900AF8EEE00A434890ED001A70
:1017000010EE810A84ED050A44E03B48C0780002EF
:1017100000B2394989780843384908800846B0F949
:10172000000000EE100AB8EEC00A3748D0ED000AFB
:1017300020EE200A84ED030A2F484079000200B20F
:101740002D49097908432D4908800846B0F9000061
:1017500000EE100AB8EEC00A2B48D0ED000A20EEC9
:10176000200A84ED040A2448C079000200B222490C
:1017700089790843214908800846B0F9000000EE45
:10178000100AB8EEC00A2048D0ED000A20EE200A68
:1017900084ED050AFFF7D4FEA22000F057F80222DC
:1017A0001549222000F032F8FFF7C0FE12480078F9
:1017B000C0001149497840EA611010490880084684
:1017C000B0F90000B0F5806F05DB08460088A0F591
:1017D000006000B208800948B0F9000000EE100A6D
:1017E000F8EEC00AB4EE001AB3EE070A00EE810A62
:1017F00084ED070A10BD0000960300209E03002020
:1018000054030020640300205803002070B50646EE
:101810000C46154646F0800000F018F806E055200A
:1018200000F014F82070641C681EC5B2002DF6D1BB
:1018300070BD70B504460D4644F0800000F006F817
:10184000552000F003F8287070BD000001B582B08B
:101850004FF47A70012301AA02A90090034800689E
:1018600004F07AF99DF804000EBD0000A0030020EA
:1018700070B505460C462846FFF7E8FF2046FFF7FF
:10188000E5FF70BDD2ED020A92ED021AB6EE000A33
:1018900000EEC10AD2ED030A92ED031A00EEC10A6E
:1018A000D0ED000A20EE200AD2ED010A92ED021AD4
:1018B00060EE810A92ED001AD2ED031A41EE610A40
:1018C00090ED011A00EE810AD2ED010A92ED031AA1
:1018D00060EE810A92ED001AD2ED021A41EE210A61
:1018E00090ED021A00EE810AF0EE000A20EE200AC6
:1018F00081ED000A92ED010AD2ED020A20EE200AE3
:10190000D2ED000A92ED031A00EE810AD0ED000A32
:1019100060EE200A92ED011AD2ED011AB6EE000A2D
:1019200001EE610AD2ED031A92ED032AB0EE401ADD
:1019300001EEC21AD0ED011AB0EE600A01EE210AE2
:10194000D2ED020A92ED031A60EE810A92ED001ABE
:10195000D2ED011A41EE610A90ED021A00EE810A01
:10196000F0EE000A20EE200A81ED010A92ED010A54
:10197000D2ED030A20EE200AD2ED000A92ED021AFF
:1019800000EEC10AD0ED000A20EE200AD2ED020AD4
:1019900092ED031A60EE810A92ED001AD2ED011A5F
:1019A00041EE210A90ED011A00EE810A92ED011A32
:1019B000D2ED011AF6EE000A41EE610A92ED021A2A
:1019C000D2ED021A41EE610A90ED021A00EE810A90
:1019D000F0EE000A20EE200A81ED020A704700BFF7
:1019E000FEE7000010B5024801F070FB10BD0000DA
:1019F000180E002010B5024801F068FB10BD000071
:101A0000400E002070B505460C46284601F04DFEFC
:101A10000221284601F04AF906492868884202D185
:101A20000548046005E005492868884201D104485A
:101A3000046070BD00640040100000200068004099
:101A400014000020F8B506460C4617461D46094806
:101A500004604460002007498860C860084605614A
:101A60006B463A46304601F036F908B10020F8BD21
:101A70000120FCE70C1400200346042B15D007DCE2
:101A80007BB1012B0ED0022B0DD0032B12D10BE01A
:101A9000202B0BD0212B0AD0222B09D0232B09D1AC
:101AA00007E008E007E006E005E004E003E002E00C
:101AB00001E000E000BF00BF002070470020704739
:101AC00010B500220449054808F0C4FB0449034846
:101AD00008F0B9FB002010BD284E0020B0400020C7
:101AE0002846002070B504460D460F490F4808F0FF
:101AF000AAFB0E4808F082FB00200D4908700A4836
:101B00000078A52805D1302207490A48FFF77AFA5C
:101B100007E0002003E00021064A1154401C302851
:101B2000F9D3002070BD0000EC450020B04000203B
:101B3000EC020020BC45002010B503460C460021F5
:101B4000084610BD2DE9F04104460D4600260A481E
:101B5000D0F8BC72D7F8140210B10120BDE8F081B2
:101B60002A462146044808F075FB034808F0F9FBB3
:101B700006463046F2E70000B040002070B52DED7B
:101B8000048B88B0044600200690079000F05CFBB0
:101B9000FE4880ED000A00BF00F056FBFB48D0ED88
:101BA000000A30EE600AF2EE040AB4EEE00AF1EE4A
:101BB00010FA14DD9FEDF60A84ED090A9FEDF50A8F
:101BC00084ED0A0A9FEDF30A84ED0B0A9FEDF20AF9
:101BD00084ED0C0A9FEDF10A84ED060A55E29FEDB3
:101BE000F00A00F0EDFA9FEDEF0A84ED0C0A9FED8C
:101BF000ED0A84ED090A9FEDEB0A84ED0A0A9FEDD8
:101C0000E90A84ED0B0A002673E1FFF799FC9220A4
:101C1000FFF71CFE062206A91220FFF7F7FDFFF7CB
:101C200085FC9DF81900000200B29DF8181040EAEA
:101C3000010500EE105AB8EEC00ADB48D0ED000AEC
:101C400020EE200A84ED000A9DF81B00000200B27D
:101C50009DF81A1040EA010500EE105AB8EEC00ACD
:101C6000D148D0ED000A20EE200A84ED010A9DF84B
:101C70001D00000200B29DF81C1040EA010500EEB4
:101C8000105AB8EEC00AC848D0ED000A20EE200A6B
:101C900084ED020AD4ED000A60EEA00A94ED011A68
:101CA000D4ED011A41EE210A94ED021AD4ED021A84
:101CB00041EE210AB0EE600A10F0F4FFB0EE408A67
:101CC00094ED0C0A30EE080A84ED0C0AFFF74CFC88
:101CD000082206A90020FFF799FDFFF73BFC9DF8BD
:101CE00018000F2850D19DF81B00000200B29DF88B
:101CF0001A1040EA010500EE105AB8EEC00AAB48CF
:101D0000D0ED000A20EE200A84ED030A94ED090AC2
:101D1000D4ED030A30EE200A84ED090A9DF81D0077
:101D2000000200B29DF81C1040EA010500EE105AB6
:101D3000B8EEC00A9D48D0ED000A20EE200A84EDDE
:101D4000040A94ED0A0AD4ED040A30EE200A84ED68
:101D50000A0A9DF81F00000200B29DF81E1040EA1A
:101D6000010500EE105AB8EEC00A9048D0ED000A06
:101D700020EE200A84ED050A94ED0B0AD4ED050A45
:101D800030EE200A84ED0B0A06BBF0EE488AB0EE76
:101D9000489A002017E004F10C0101EB800191ED5D
:101DA000000A03A901EB800181ED000A04F10C0196
:101DB00001EB800191ED000A694601EB800181EDA4
:101DC000000A411CC8B20328E5DB49E0B4EEE88A0A
:101DD000F1EE10FA01DDF0EE488AB4EEC98AF1EEB8
:101DE00010FA01D2B0EE489A002037E004F10C015D
:101DF00001EB800191ED000A03A901EB8001D1ED17
:101E0000000AB4EEE00AF1EE10FA0ADD04F10C016A
:101E100001EB800191ED000A03A901EB800181ED46
:101E2000000A04F10C0101EB800191ED000A694602
:101E300001EB8001D1ED000AB4EEE00AF1EE10FAF8
:101E40000AD204F10C0101EB800191ED000A694610
:101E500001EB800181ED000A411CC8B20328C5DBFB
:101E600038EEC90A524880ED000A002012E003A9AA
:101E700001EB800191ED000A694601EB8001D1ED93
:101E8000000A30EE600A4B4901EB800181ED000A47
:101E9000411CC8B20328EADB454890ED000AF6EE83
:101EA000000AB4EEE00AF1EE10FA1BDC414890EDB6
:101EB000000ADFED410AB4EEE00AF1EE10FA11DC9F
:101EC00090ED010ADFED3C0AB4EEE00AF1EE10FA03
:101ED00008DC90ED020ADFED380AB4EEE00AF1EE1C
:101EE00010FA00DD0AE09FED350A00F069F9701C78
:101EF00086B2334800888642FFF687AE00BFD4ED35
:101F00000C0A2F48008800EE100AB8EE400A80EE56
:101F1000801A84ED0C1A002015E004F1240101EB75
:101F20008001D1ED000A2649098800EE101AB8EEAA
:101F3000400A80EE801A04F1240101EB800181ED5A
:101F4000001A411CC8B20328E7DBFFF7F9FAA22008
:101F5000FFF77CFC022206A92220FFF757FCFFF7BF
:101F6000E5FA9DF81800C0009DF8191040EA6115C7
:101F7000B5F5806F02DBA5F5006005B200EE105AE2
:101F8000F8EEC00AB4EE001A1CE000009003002036
:101F9000B65E9A3AED11DFBBE5AC18410000204275
:101FA0000AD7A33B00000000540300205803002080
:101FB00060030020CC3D00209A99193E6F12033A2D
:101FC00094030020B3EE070A00EE810A84ED060AAE
:101FD00040480088401C00B23E4908803E4890EDD1
:101FE000000AF6EE000AB4EEE00AF1EE10FA3FF74E
:101FF000D3AD94ED0C0ADFED390A30EE600AB0EE95
:10200000C00AF6EE000AB4EEE00AF1EE10FAEEDCD9
:10201000334890ED000A5FED180AB4EEE00AF1EEE5
:1020200010FAE4DC90ED010A5FED1D0AB4EEE00A5F
:10203000F1EE10FADBDC90ED020A5FED210AB4EE5E
:10204000E00AF1EE10FAD2DC94ED090AB0EEC00A13
:10205000DFED240AB4EEE00AF1EE10FAC7DC94EDED
:102060000A0AB0EEC00ADFED1F0AB4EEE00AF1EE94
:1020700010FABCDC94ED0B0AB0EEC00ADFED190AD1
:10208000B4EEE00AF1EE10FAB1DC00BF94ED0C0AF8
:10209000DFED150A80EE801A84ED081A94ED090A26
:1020A000124880ED0E0A94ED0A0A80ED0F0A94EDB5
:1020B0000B0A80ED100A94ED0C0A80ED110A012044
:1020C0000A4981F8350081F8480008B0BDEC048B5E
:1020D00070BD00006603002060030020CDCC1C41D1
:1020E000CC3D00200AD7233CC3F51C41D83D00203D
:1020F00010B58AB004460120089007900020069091
:102100000290039000900190049005900A49206885
:10211000884204D16946204600F088FE0AE007495B
:102120002068884206D10E20099005906946204615
:1021300000F07CFE0AB010BD006400400068004062
:1021400010B5024801F050FB10BD0000AC12002099
:1021500010B5024801F048FB10BD00000C13002030
:1021600010B5024801F040FB10BD00004C120020E9
:1021700010B5024801F038FB10BD00006C130020C0
:1021800010B5024801F030FB10BD0000EC1100203A
:1021900008B50848406800900749009809688842D7
:1021A00004D206480068401C0449086002490098AF
:1021B000086008BD001000E0A00400209C0400207E
:1021C0000C494868F0EE400A00BF0A494968091AFC
:1021D00001EE101AF8EE411A074991ED001AB8EE17
:1021E000411A20EE811AF4EEC11AF1EE10FAECD386
:1021F00070470000001000E09004002010B52DEDA5
:10220000028B82B004460E48406801902068019914
:10221000081A00EE100AF8EE400A0A4890ED000A8B
:10222000B8EE400A80EE801AB0EE418A0198206034
:10223000FFF7AEFFB0EE480A02B0BDEC028B10BD56
:10224000001000E09004002010B52DED028B00F08E
:1022500059F80F4890ED000AB8EE400A808800EE69
:10226000900AF8EE600A9FED0B1A00EE810A08480A
:10227000C08800EE900AF8EE600A9FED071A00EEA3
:10228000810AB0EE408AB0EE480ABDEC028B10BD68
:10229000880400206F12833ABD37863512490968D9
:1022A00041F08071104A11600021104A51601146BE
:1022B000096841F0010111600D4941430D4A116067
:1022C000114609684FF47A72B1FBF2F10A4A1160C3
:1022D00008490968064AB1FBF2F1084A1160002179
:1022E000074A116070470000FCED00E0001000E0BC
:1022F00040420F0090040020940400209804002025
:102300009C04002038B5294840680090FFF740FF42
:10231000274800684FF0FF31A0FB013100981818E2
:1023200041F10001234A03C22348002321490268E6
:1023300003C9FEF7D9FD214A03C220480CC81E4834
:1023400000680024A2FB001503FB005002FB0402FE
:102350001848D0E90030591A60EB0200184AC2E967
:1023600000101648006817490860174800231449F0
:10237000026803C9FEF7B8FD1249888008468088C4
:102380001149096841430E48D0E90030591A60F1FB
:1023900000000E4AC2E900100D4800230B490268F4
:1023A00003C9FEF7A1FD0749C88038BD001000E051
:1023B0009C040020A804002090040020B004002009
:1023C000B80400208804002094040020C0040020E9
:1023D00098040020704710B5012001F0C1FC10BD29
:1023E00010B5082001F0BCFC10BD10B5102001F0A4
:1023F000B7FC10BD10B5202001F0B2FC10BDD2ED2D
:10240000020A92ED021AB6EE000A00EEC10AD2EDFF
:10241000030A92ED031A00EEC10AD0ED000A20EE85
:10242000200AD2ED010A92ED021A60EE810A92EDC5
:10243000001AD2ED031A41EE210A90ED011A00EEC6
:10244000810AD2ED010A92ED031A60EE810A92ED43
:10245000001AD2ED021A41EE610A90ED021A00EE66
:10246000810AF0EE000A20EE200A81ED000A92EDCA
:10247000010AD2ED020A20EE200AD2ED000A92ED06
:10248000031A00EEC10AD0ED000A60EE200A92EDB8
:10249000011AD2ED011AB6EE000A01EE610AD2ED80
:1024A000031A92ED032AB0EE401A01EEC21AD0EDE3
:1024B000011AB0EE600A01EE210AD2ED020A92ED95
:1024C000031A60EE810A92ED001AD2ED011A41EE74
:1024D000210A90ED021A00EE810AF0EE000A20EEC9
:1024E000200A81ED010A92ED010AD2ED030A20EEE5
:1024F000200AD2ED000A92ED021A00EE810AD0ED18
:10250000000A20EE200AD2ED020A92ED031A60EED4
:10251000810A92ED001AD2ED011A41EE610A90EDA6
:10252000011A00EE810A92ED011AD2ED011AF6EEBF
:10253000000A41EE610A92ED021AD2ED021A41EE52
:10254000610A90ED021A00EE810AF0EE000A20EE18
:10255000200A81ED020A70477047000010B5002282
:1025600001B909E0012901D10A0205E0022901D1DE
:102570000A0201E04FF440720E4B1B6823F44073D3
:102580000C4C236023461B681343236023461B68BF
:1025900023F0F803236023461B68022444EAC004A6
:1025A0002343044C236023461B6843F48033236099
:1025B00010BD0000103C02401C48006800F4007090
:1025C000B0B11A48006820F400701849086000BFD4
:1025D0000846006840F4006008600846006820F47F
:1025E0000060086000BF0846006840F400700860A2
:1025F0000E48006800F48060B0B10C48006820F418
:1026000080600A49086000BF0846006840F48050B6
:1026100008600846006820F48050086000BF084643
:10262000006840F48060086070470000003C024091
:1026300070B50446002500201449C86101F0ACFCC7
:10264000054609E0601C38B124B101F0A5FC401B2F
:10265000A04201D9032070BD0D48006800F480300D
:102660000028EFD10A48006800F0010010B10120F5
:10267000074908600648006800F0F20018B10FF042
:102680008BFC0120E7E70020E5E70000305A00203E
:102690000C3C024000B587B0142102A8FEF753FDA0
:1026A00000BF002001904848006840F00200464901
:1026B00008600846006800F00200019000BF00BFFB
:1026C00000BF002001900846006840F0400008600C
:1026D0000846006800F04000019000BF00BF00BF46
:1026E000002001900846006840F00100086008469C
:1026F000006800F00100019000BF00BF00BF002093
:1027000001900846006840F008000860084600682C
:1027100000F00800019000BF00BF00BF0020019042
:102720000846006840F0040008600846006800F0B1
:102730000400019000BF00BF00BF002001900846C8
:10274000006840F4807008600846006800F48070FB
:10275000019000BF00BF00BF002001900846006844
:1027600040F0200008600846006800F0200001905A
:1027700000BF00BF00BF002001900846006840F085
:10278000800008600846006800F08000019000BFEB
:1027900000BF00BF002001900846006840F0100014
:1027A00008600846006800F01000019000BF00BFFC
:1027B000C8140290002003900220049002A903484C
:1027C00001F0DCFA07B000BD3038024000100240D2
:1027D00070B50A480468001D0568001D0668344489
:1027E00054B108220649204605F00EFD0422044992
:1027F0001031284605F008FD70BD0000107AFF1F5B
:102800001205002038B502460020009000BF92F863
:102810003C00012801D1022038BD012082F83C0093
:1028200000BF0868092816D91068C0680C780A3CEF
:1028300004EB44050724AC40A0431468E0600C7826
:102840000A3C04EB44048868A0401468E468204310
:102850001468E06013E0106800690C7804EB44052C
:102860000724AC40A043146820610C7804EB4404B6
:102870008868A0401468246920431468206148686F
:10288000072817D21068406B0C79641E04EB84058E
:102890001F24AC40A04314686063088880B20C79A0
:1028A000641E04EB8404A0401468646B2043146825
:1028B000606331E048680D2817D21068006B0C790E
:1028C000E41F04EB84051F24AC40A043146820637C
:1028D000088880B20C79E41F04EB8404A0401468DB
:1028E000246B20431468206316E01068C06A0C79DA
:1028F0000D3C04EB84051F24AC40A0431468E06247
:10290000088880B20C790D3C04EB8404A040146864
:10291000E46A20431468E062194B1A4C1068A04224
:1029200006D10868122803D1586840F48000586026
:10293000144C1068A0421CD10868102802D0086806
:10294000112816D1586840F4000058600868102813
:102950000FD10D4800680D4CB0FBF4F000EB800087
:102960004000009002E00098401E0090009800286F
:10297000F9D100BF002082F83C0000BF00BF4BE748
:1029800000230140002001405405002040420F0078
:1029900001460868C06C704770B5044600250CB944
:1029A000012070BD1549A06A884200D000BF206C8C
:1029B00030B9204600F024F80020606484F83C0020
:1029C000206C00F0100088B9206C20F4885040F092
:1029D0000200206420460EF0A7FB00206064206CFB
:1029E00020F0020040F00100206400E0012500BF5B
:1029F000002084F83C0000BF2846D2E70100000F09
:102A000010B586B00446142101A8FEF79CFB2349AB
:102A1000206888420FD100BF002000902048006845
:102A200040F480701E4908600846006800F4807019
:102A3000009000BF2FE01B49206888422BD100BFC7
:102A4000002000901648006840F480601449086037
:102A50000846006800F48060009000BF00BF00BF1F
:102A6000002000900E481438006840F020000C4907
:102A7000143908600846006800F02000009000BF8C
:102A800000BF08150190032002900020039001A9C7
:102A9000054801F073F906B010BD000000200140A8
:102AA00044380240002201400014024070B5044640
:102AB0000D4600262068806800F48060B0F5806FC5
:102AC00011D12068806800F48070B0F5807F0AD151
:102AD000206C40F02000206400BF002084F83C00FF
:102AE00000BF012070BD01F057FA064612E0681CD5
:102AF00080B125B101F050FA801BA8420AD9206CA0
:102B000040F00400206400BF002084F83C0000BFB7
:102B10000320E7E72068006800F002000228E6D101
:102B20006FF0120021680860206C40F4007020648F
:102B30002068806800F04050B8B9207EA8B92068AD
:102B4000C06A00F4700020B12068806800F48060E2
:102B500058B9206C20F480702064206C00F4805000
:102B600018B9206C40F0010020640020BAE7000092
:102B700008B501460020009000BF91F83C000128F4
:102B800001D1022008BD012081F83C0000BF086887
:102B9000806800F00100A0B90868806840F001007A
:102BA0000B6898603B4800683B4BB0FBF3F000EBD0
:102BB0004000009002E00098401E0090009800281D
:102BC000F9D10868806800F0010000285FD0086C27
:102BD00040F20163984340F48070086408684068DC
:102BE00000F4806028B1086C20F4005040F480505C
:102BF0000864086C00F48050B0F5805F04D1486C24
:102C000020F00600486401E00020486400BF002076
:102C100081F83C0000BF214A6FF022000B68186069
:102C2000506800F01F0018BB1D4B0868984213D075
:102C30001C4B0868984204D1101D006800F01F006A
:102C400050B1194B0868984221D11448001D006802
:102C500000F01F0010281AD20868806800F0405069
:102C600028B90868806840F080400B6898600EE0E2
:102C70000B4B086898420AD10868806800F0405001
:102C800028B90868806840F080400B689860002090
:102C900078E700005405002040420F000023014067
:102CA00000200140002101400022014010B50246F1
:102CB00092F82030012B01D0022B06D11068406918
:102CC000084314686061002010BD506A40F4802001
:102CD00050620120F8E7F0B504460D461E4694F810
:102CE000207020688368A86800B900E000BF012F49
:102CF00001D0022F7CD103F0806030B903F0006076
:102D000018B903F08050002873D0C3F30161022981
:102D100005D9606A40F4000060620120F0BD012026
:102D200088403060A86860B9B5F800C0E86840EA3B
:102D30004C5C206800F5C07000EB0110C0F800C0CA
:102D40000FE0D5E901C040EACC00D5F80CC040EA5C
:102D50000C00D4F800C00CF5C07C0CEB011CCCF8C6
:102D60000000D5F810C0206800F5C07000EB01101D
:102D7000C0F804C0287D01280ED1206800F5C0707D
:102D800000EB0110406840F4807C206800F5C070C2
:102D900000EB0110C0F804C0D079000692F806C01C
:102DA00040EA0C4092F805C040EA0C2C10794CEA3D
:102DB000000C206800F5C07000EB0110C0F80CC0DA
:102DC000D078000692F802C040EA0C4092F801C0A8
:102DD00040EA0C2092F800C040EA0C00D4F800C091
:102DE0000CF5C07C0CEB011CCCF80800206801E05D
:102DF00016E00FE000F5C07000EB0110006840F035
:102E0000010C206800F5C07000EB0110C0F800C094
:102E1000002083E7606A40F40010606201207DE7D3
:102E2000606A40F480206062012077E7F0B50446D4
:102E30000A46216894F82050012D01D0022D7ED140
:102E4000424901F50071086840F001000860086817
:102E500020F47C5008600868566A40EA0620086042
:102E6000107D00F01F06012000FA06F3C8699843A0
:102E7000C861A1F50071D069C8B9D1F80C029843B6
:102E8000C1F80C02908880B2968940EA064601F5A6
:102E90001070576940F83760108880B2168940EA90
:102EA000064601F51070576900EBC7004660D0690F
:102EB000012819D1D1F80C021843C1F80C029088EE
:102EC00080B2168840EA064601F51070576940F84E
:102ED0003760908980B2168940EA064601F5107085
:102EE000576900EBC7004660906928B9D1F8040221
:102EF0009843C1F8040204E0D1F804021843C1F871
:102F00000402106928B9D1F814029843C1F81402D8
:102F100004E0D1F814021843C1F81402106A012821
:102F200004D1D1F81C021843C1F81C02D1F80002E8
:102F300020F00100C1F800020020F0BDFFE7606A48
:102F400040F4802060620120F7E700000064004048
:102F5000704770B5044694F82050012D01D0022D21
:102F60007DD151B92068C06800F0030080B9606A63
:102F700040F400106062012070BD2068006900F01C
:102F8000030028B9606A40F4001060620120F3E792
:102F9000206800F5D87000EB0110006800F0040014
:102FA0009060906840B9206800F5D87000EB01107F
:102FB0000068400D106007E0206800F5D87000EB55
:102FC00001100068C0085060206800F5D87000EB60
:102FD0000110006800F00200D060206800F5D87091
:102FE00000EB0110406800F00F001061206800F550
:102FF000D87000EB0110406800F47F40000A906137
:10300000206800F5D87000EB01104068000C50619A
:10301000206800F5D87000EB0110806818702068F7
:1030200000F5D87000EB0110806800F47F40000AC2
:103030005870206800F5D87000EB0110806800F42B
:103040007F00000C9870206800F5D87000EB01102C
:103050008068000ED870206800F5D87000E02FE07E
:1030600000EB0110C0681871206800F5D87000EB03
:103070000110C06800F47F40000A5871206800F514
:10308000D87000EB0110C06800F47F00000C98714C
:10309000206800F5D87000EB0110C068000ED871F0
:1030A00031B92068C06840F020002668F06005E073
:1030B0002068006940F020002668306100205BE74E
:1030C000606A40F480206062012055E72DE9F05FDE
:1030D00004460025206846692068D0F804902068DE
:1030E00087682068D0F80CA02068D0F810B020685D
:1030F000D0F8188006F00100002855D007F0010034
:10310000C0B101202168886007F0020018B1204694
:1031100000F0FBFA0EE007F0040010B145F4006582
:1031200008E007F0080010B145F4805502E02046A1
:1031300000F0EAFA07F48070C8B14FF4807021689B
:10314000886007F4007018B1204600F0E0FA0EE045
:1031500007F4806010B145F4005508E007F4006002
:1031600010B145F4804502E0204600F0CFFA07F4A4
:103170008030C8B14FF480302168886007F4003097
:1031800018B1204600F0C5FA0EE007F4802010B117
:1031900045F4004508E007F4002010B145F48035FF
:1031A00002E0204600F0B4FA06F0080038B10AF058
:1031B000100020B145F4007510202168C86006F0A9
:1031C000040040B10AF0080028B108202168C86056
:1031D000204600F00DFA06F0020038B12068C06801
:1031E00000F0030010B1204600F004FA06F04000A1
:1031F00038B10BF0100020B145F480651020216833
:10320000086106F0200040B10BF0080028B108204A
:1032100021680861204600F019FA06F0100038B164
:103220002068006900F0030010B1204600F010FA99
:1032300006F4003040B109F0100028B110202168D8
:103240004860204600F030FA06F4803040B109F0C2
:10325000080028B1082021684860204600F05AFA8A
:1032600006F4004088B309F0040078B306F48070D7
:1032700020B108F0010008B145F0010506F4007026
:1032800020B108F0020008B145F0020506F48060A4
:1032900020B108F0040008B145F0040506F4006010
:1032A000A0B108F0700088B108F07000402817D075
:1032B00006DC10280BD020280CD0302819D10CE0C7
:1032C000502810D0602814D110E01DE019E045F01E
:1032D00008050FE045F010050CE045F0200509E079
:1032E00045F0400506E045F0800503E045F48075B3
:1032F00000E000BF00BF2068806920F070002168F6
:1033000088610420216848602DB1606A28436062AA
:103310002046FFF71DFEBDE8F09F70B504460CB9CE
:10332000012070BD94F8200010B9204600F0B0F8DC
:103330002068006820F002002168086000F02CFE80
:1033400005460DE000F028FE401B0A2808D9606AF7
:1033500040F400306062052084F820000120E0E79E
:103360002068406800F002000028EBD12068006867
:1033700040F001002168086000F00EFE05460DE0F7
:1033800000F00AFE401B0A2808D9606A40F40030A9
:103390006062052084F820000120C2E720684068B0
:1033A00000F001000028EBD0207E012806D1206823
:1033B000006840F080002168086005E0206800682F
:1033C00020F0800021680860607E012806D1206816
:1033D000006840F040002168086005E0206800684F
:1033E00020F0400021680860A07E012806D12068F6
:1033F000006840F020002168086005E0206800684F
:1034000020F0200021680860E07E012806D12068B5
:10341000006820F010002168086005E0206800685E
:1034200040F0100021680860207F012806D1206844
:10343000006840F008002168086005E02068006826
:1034400020F0080021680860607F012806D120680C
:10345000006840F004002168086005E0206800680A
:1034600020F0040021680860D4E9020108432169C2
:103470000843616908436168491E08432168C861BF
:1034800000206062012084F82000002049E700004D
:1034900010B586B00446142101A8FDF754FE4E492C
:1034A0002068884241D14D480068401C4B49086063
:1034B0000846006801280FD100BF0020009048484E
:1034C000006840F00070464908600846006800F057
:1034D0000070009000BF00BF00BF00200090404877
:1034E0001038006840F008003D491039086008466F
:1034F000006800F00800009000BF00BF03200190AA
:1035000002200290002003900320049009200590DF
:1035100001A9344800F032FC00220521142000F0FB
:1035200031FF142000F01EFF54E02F49206888422C
:1035300050D100BF002000902948006840F0806012
:10354000274908600846006800F08060009000BFCE
:1035500000BF22480068401C2049086008460068F7
:1035600001280FD100BF002000901D48006840F0E6
:1035700000701B4908600846006800F00070009069
:1035800000BF00BF00BF0020009015481038006841
:1035900040F002001249103908600846006800F047
:1035A0000200009000BF00BF602001900220029046
:1035B00000200390032004900920059001A90B48E6
:1035C00000F0DCFB00220521402000F0DBFE402063
:1035D00000F0C8FE06B010BD006400400C000020E2
:1035E00040380240000C02400068004000040240E5
:1035F0007047000010B504460F49206888420BD17F
:103600000E4B03F10C0200212046FFF7A2FC0B48F1
:103610000B49096888470EE00A49206888420AD1A8
:10362000064B03F10C0200212046FFF792FC0348F1
:1036300005490968884710BD006400403C1400201B
:1036400010000020006800401400002070470000B7
:1036500010B504460F49206888420BD10E4B03F188
:103660000C0201212046FFF774FC0B480B49096846
:1036700088470EE00A49206888420AD1064B03F1C8
:103680000C0201212046FFF764FC03480549096844
:10369000884710BD00640040641400201000002022
:1036A0000068004014000020704770B5044694F88C
:1036B0002000012822D1022084F820002068006820
:1036C00020F001002168086000F066FC05460DE06E
:1036D00000F062FC401B0A2808D9606A40F4003000
:1036E0006062052084F82000012070BD20684068D9
:1036F00000F001000028EBD16062F6E7606A40F458
:10370000002060620120F0E7704770477047704703
:1037100070477047704770B50446A56D00F03CFCDB
:10372000064694F83500022808D08020606500BF66
:10373000002084F8340000BF012070BD20680068BC
:1037400020F01600216808602068406920F08000A1
:1037500021684861206C08B9A06C28B12068006815
:1037600020F00800216808602068006820F001004F
:10377000216808600FE000F00FFC801B05280AD9C3
:103780002020606500BF002084F8340000BF0320C3
:1037900084F83500D1E72068006800F001000028B7
:1037A000E9D194F85C103F208840A86000BF002059
:1037B00084F8340000BF012084F835000020BCE705
:1037C000014691F83500022803D080204865012089
:1037D0007047052081F835000868006820F0010076
:1037E0000A6810600020F3E7F8B504460020009056
:1037F0008C4800684FF41651B0FBF1F7A56D2E68A8
:1038000094F85C1008208840304098B12068006827
:1038100000F0040070B12068006820F00400216806
:10382000086094F85C1008208840A860606D40F043
:103830000100606594F85C1001208840304068B158
:103840002068406900F0800040B194F85C100120CD
:103850008840A860606D40F00200606594F85C10DC
:1038600004208840304068B12068006800F0020001
:1038700040B194F85C1004208840A860606D40F06E
:103880000400606594F85C1010208840304078B3E4
:103890002068006800F0080050B394F85C10102015
:1038A0008840A8602068006800F4802080B120680B
:1038B000006800F4002028B9206CC8B12046216CB3
:1038C000884715E0A06C98B12046A16C88470FE0AE
:1038D0002068006800F4807028B92068006820F033
:1038E000080021680860206C10B12046216C8847D0
:1038F00094F85C10202088403040002865D0206873
:10390000006800F0100000285FD094F85C102020C0
:103910008840A86094F83500052828D12068006800
:1039200020F01600216808602068406920F08000BF
:1039300021684861206C08B9A06C28B12068006833
:1039400020F008002168086094F85C103F2088404F
:10395000A86000BF002084F8340000BF012084F874
:103960003500206D10B12046216D8847F8BD2068D4
:10397000006800F4802080B12068006800F4002016
:1039800028B9606C10B12046616C88471DE0E06B7F
:10399000D8B12046E16B884717E02068006800F442
:1039A000807068B92068006820F010002168086005
:1039B00000BF002084F8340000BF012084F83500E7
:1039C000E06B10B12046E16B8847606D38B3606DE5
:1039D00000F00100F0B1052084F83500206800688F
:1039E00020F001002168086000BF0098401C009092
:1039F000B84200D905E02068006800F00100002806
:103A0000F3D100BF00BF002084F8340000BF0120C4
:103A100084F83500E06C10B12046E16C884700BFA7
:103A2000A4E70000540500202DE9F04104460025DC
:103A300000F0B2FA074614B90120BDE8F081606ACF
:103A400000B100BF00BF002084F8340000BF022096
:103A500084F835002068006820F0010021680860C3
:103A60000AE000F099FAC01B052805D920206065FE
:103A7000032084F83500E0E72068006800F00100CA
:103A80000028EED12068056821480540D4E90101ED
:103A90000843E16808432169084361690843A16953
:103AA0000843E1690843216A08430543606A042822
:103AB00003D1D4E90B010843054320680560206861
:103AC000456925F00705606A0543606A04280DD141
:103AD000A06A0543E06A48B120460DF0EBFB28B12F
:103AE00040206065012084F83500A6E72068456124
:103AF00020460DF035FC064694F85C103F208840C7
:103B0000B06000206065012084F83500002094E753
:103B10003F8010F02DE9F04704460D4616461F463B
:103B20004FF00008D4F8589000BF94F834000128F2
:103B300002D10220BDE8F087012084F8340000BFE4
:103B400094F83500012825D1022084F835000020A2
:103B500060653B463246294620460DF095FB94F8B9
:103B60005C103F208840C9F808002068006840F0D9
:103B7000160021680860206C28B12068006840F0B9
:103B80000800216808602068006840F00100216892
:103B9000086006E000BF002084F8340000BF4FF04A
:103BA00002084046C6E7000070B5044600F0F4F98C
:103BB00006462546681C10B104480078054400BF3D
:103BC00000F0EAF9801BA842FAD370BD500500202E
:103BD0002DE9F04104460E460127002500BF254887
:103BE000007E012802D10220BDE8F0810120214998
:103BF000087600BF4CF25030FEF71AFD0746002F42
:103C000031D1401E3060206801280FD1207C6168CE
:103C10000EF05CFA4CF25030FEF70AFD07461648EB
:103C2000006820F00400144908601AE0A56812E05A
:103C3000217C2846FEF792FC4CF25030FEF7F8FC4F
:103C400007460D48006820F0FA000B4908600FB1E4
:103C5000356005E06D1CD4E902100844A842E7D89D
:103C600000BFFEF7A9FC00BF00200249087600BF94
:103C70003846B9E7305A0020103C0240034800683B
:103C800040F000400149086000207047103C0240AD
:103C90002DE9F04106460F4614461D464FF0010837
:103CA00000BF1F48007E012802D10220BDE8F0813C
:103CB00001201B49087600BF4CF25030FEF7B8FCDB
:103CC0008046B8F1000F23D126B9E1B238460EF094
:103CD0003DF912E0012E04D1A1B238460EF0A8F948
:103CE0000BE0022E04D1214638460EF041F904E0E3
:103CF00022462B4638460EF0AFF94CF25030FEF714
:103D000097FC80460748006820F0010005490860DC
:103D100000BF00200249087600BF4046C6E7000009
:103D2000305A0020103C024000200949096801F087
:103D3000004159B10749064A0C3A11600649116021
:103D40000349096801F0004101B1012070470000FA
:103D5000103C024023016745AB89EFCD704700005E
:103D600010B5044604480068204020B102480460B1
:103D70002046FFF7F3FF10BD143C0140F8B50246A2
:103D80000B460025002400200021DCE0012606FA75
:103D900001F51E6806EA0504AC4273D15E68012E87
:103DA00008D05E68022E05D05E68112E02D05E68D3
:103DB000122E13D190684F000326BE40B0434F002F
:103DC000DE68BE4030439060506801268E40B043AC
:103DD0001E79C6F300168E4030435060D0684F0005
:103DE0000326BE40B0434F009E68BE403043D060C3
:103DF0005E68022E02D05E68122E13D1CF0802F147
:103E0000200656F827004E07F70E0F26BE40B04397
:103E10004F07FF0E1E69BE403043CF0802F1200657
:103E200046F8270010684F000326BE40B0431E79B5
:103E300006F003064F00BE40304310605E6806F097
:103E40008056B6F1805F7DD100BF00260096404EBF
:103E5000366846F480463E4F3E603E46366806F47D
:103E60008046009600BF00BF3A4E8F0856F82700E4
:103E70008E07370F0F26BE40B043374EB24202D1F5
:103E8000002624E05EE0354EB24201D101261EE05C
:103E9000334EB24201D1022619E0324EB24201D174
:103EA000032614E0304EB24201D104260FE02F4E1B
:103EB000B24201D105260AE02D4EB24201D10626BA
:103EC00005E02C4EB24201D1072600E008268F07FC
:103ED0003F0FBE4030431F4E8F0846F82700264E46
:103EE0003068A0435E6806F48036B6F5803F00D1A6
:103EF0002043214E3060361D3068A0435E6806F4D2
:103F00000036B6F5003F00D120431B4E361D306011
:103F1000361D3068A0435E6806F48016B6F5801F33
:103F200000D12043144E08363060361D3068A0435F
:103F30005E6806F40016B6F5001F00D120430E4E51
:103F40000C363060491C1029FFF420AFF8BD00008A
:103F5000443802400838014000000240000402409A
:103F600000080240000C0240001002400014024011
:103F700000180240001C0240003C01400246136948
:103F80000B400BB1012000E0002070470AB18161B5
:103F900001E00B048361704701480068704700002E
:103FA0004805002070B504460CB9012070BD94F896
:103FB0003D0028B9002084F83C00204600F0DAF8E3
:103FC000242084F83D002068006820F0010021686A
:103FD00008602068006840F400402168086020689C
:103FE000006820F400402168086001F0AFF9054640
:103FF0005C496068884206D85B48854201D201204E
:1040000007E0002005E05948854201D2012000E088
:104010000020012800D1C9E75548B5FBF0F620681B
:10402000406820F03F003043216848604D49606897
:10403000884201D8701C07E04FF4967070434FF42B
:104040007A71B0FBF1F0401C2168096A21F03F0150
:1040500008432168086243496068884214D8681E92
:1040600061684900B0FBF1F0401CC0F30B0004286C
:1040700001D204203DE0681E61684900B0FBF1F008
:10408000401CC0F30B0034E0A06838B9681E6168BA
:1040900001EB4101B0FBF1F0401C0AE0681E6168D1
:1040A00001EBC10202EB0111B0FBF1F0401C40F446
:1040B0008040C0F30B0008B901201AE0A06848B99D
:1040C000681E616801EB4101B0FBF1F0401CC0F3D8
:1040D0000B000CE0681E616801EBC10202EB0111EC
:1040E000B0FBF1F0401CC0F30B0040F4804040F402
:1040F00000402168C9694CF6FF729143084321686A
:10410000C861D4E9070108432168096821F0C001AA
:10411000084321680860D4E90310084321688968CE
:1041200048F2FF329143084321688860D4E90501D1
:1041300008432168C96821F0FF0108432168C8606D
:104140002068006840F001002168086000202064B9
:10415000202084F83D000020206384F83E0000BF4A
:1041600024E70000A086010080841E0000093D00B5
:1041700040420F0010B586B00446142101A8FCF798
:10418000E2FF2A49206888424DD100BF00200090FC
:104190002748006840F00400254908600846006888
:1041A00000F00400009000BF00BF00BF002000909E
:1041B0000846006840F0010008600846006800F00A
:1041C0000100009000BF00BF48150190122002902E
:1041D00001200390032004900420059001A91548B4
:1041E000FFF7CCFD4FF48070019012200290012067
:1041F0000390032004900420059001A90E48FFF7C6
:10420000BDFD00BF0020009009481030006840F458
:1042100000000749103108600846006800F40000FB
:10422000009000BF00BF06B010BD0000005C004061
:104230003038024000080240000002400348006895
:10424000034909780844014908607047480500207F
:104250005005002010B50D48006840F400700B496F
:1042600008600846006840F48060086008460068FE
:1042700040F480700860032000F0C2F8002000F0D5
:1042800007F800F04BF8002010BD0000003C024091
:1042900070B588B00446002500260022214636204D
:1042A00000F070F8362000F05DF800BF00200190AB
:1042B0001648006840F0100014490860084600687D
:1042C00000F01000019000BF00BF02A903A801F098
:1042D00015F801F03BF845000D48B5FBF0F0461E1F
:1042E0000C480D49086040F2E7310B48C160466058
:1042F00000210161816001F0DBFD20B9064801F079
:1043000066FE08B070BD0120FBE7000040380240A7
:1043100040420F0000100040CC13002008B500BF41
:10432000002000900E48006840F480400C4908606E
:104330000846006800F48040009000BF00BF00BF46
:1043400000200090081F006840F08050091F08609E
:104350000846006800F08050009000BF00BF08BD14
:104360004438024001460846002809DB00F01F03DC
:1043700001229A4043099B0003F1E023C3F8002186
:1043800000BF70472DE9F05F80460D4616460027B6
:104390000DF094FE074639462A46334601F00700E1
:1043A000C0F1070ABAF1040F02D94FF0040A01E084
:1043B000C0F1070AD14600F1040ABAF1070F02D290
:1043C0004FF0000A01E0A0F1030AD4464FF0010AC1
:1043D0000AFA09FAAAF1010A0AEA020A0AFA0CFA26
:1043E0004FF0010B0BFA0CFBABF1010B0BEA030BCB
:1043F0004AEA0B04214640460DF04CFEBDE8F09F12
:1044000000BF00F00702064B19684FF6FF03194082
:10441000044B0B4343EA0221014B196000BF704774
:104420000CED00E00000FA0500BF00BF00BF00BFB8
:1044300000BFBFF34F8F00BF00BF00BF0948006837
:1044400000F4E06008490843001D0649086000BF09
:1044500000BF00BFBFF34F8F00BF00BF00BF00BF52
:1044600000BFFDE70CED00E00000FA0570470246D2
:104470001068416200207047F0B503461546186881
:10448000446A21B944EA05401E68B06219E0186820
:10449000806A04EB1044002208E0186800F582707E
:1044A00050F8220004EB1044501CC2B2481E904247
:1044B000F3D844EA0547186800F582704E1E40F8AC
:1044C00026700020F0BD10B50446D4F8040406F0B0
:1044D00024FB10BD70B504460D46C5EBC50304F1C1
:1044E0003C0101EB8301CA682946D4F8040406F0B4
:1044F00058FA70BD70B504460D46C5EBC50304F50A
:10450000FE7101EB8301CA682946D4F8040406F061
:10451000BBFA70BD10B50446D4F8040406F000FBE5
:1045200010BD70B504460E4606F0800080280AD102
:1045300006F00F00C0EBC00104F13C0000EB810568
:104540000120687009E006F00F00C0EBC00104F51F
:10455000FE7000EB81050020687006F00F002870E7
:1045600000BF94F8BC03012801D1022070BD0120D6
:1045700084F8BC0300BF2946206806F0B5FF00BFE1
:10458000002084F8BC0300BF00BFEFE770B504460D
:104590000E4606F00F006168884201D9012070BD07
:1045A00006F0800080280AD106F00F00C0EBC001A1
:1045B00004F13C0000EB81050120687009E006F081
:1045C0000F00C0EBC00104F5FE7000EB8105002078
:1045D00068700020A87006F00F00287000BF94F8E3
:1045E000BC03012801D10220D9E7012084F8BC03D3
:1045F00000BF2946206807F05DFA00BF002084F85C
:10460000BC0300BF00BFCAE7024601F00F00C0EBC9
:10461000C00302F5FE7000EB8300806970472DE94E
:10462000F04705460E4690461F464FF0000906F03B
:10463000800080280AD106F00F00C0EBC00105F110
:104640003C0000EB81040120607009E006F00F00DF
:10465000C0EBC00105F5FE7000EB81040020607026
:1046600006F00F002070C4F80880E770607808B189
:104670002078E080022F01D10020207100BF95F842
:10468000BC03012802D10220BDE8F087012085F893
:10469000BC0300BF2146286806F068FE00BF00206A
:1046A00085F8BC0300BF4846EEE72DE9F04104461B
:1046B0000E461746984606F00F00C0EBC00104F501
:1046C000FE7000EB8105EF60C5F814800020A86142
:1046D000687006F00F0028702069012800D12F6152
:1046E00006F00F0028B9227C2946206807F0BEF8A2
:1046F00004E0227C2946206807F070FA0020BDE81B
:10470000F08170B504460D4605F00F0061688842DF
:1047100001D9012070BD05F0800080280AD105F084
:104720000F00C0EBC00104F13C0000EB810601204A
:10473000707007E0C5EBC50104F5FE7000EB810663
:10474000002070700120B07005F00F00307000BFC5
:1047500094F8BC03012801D10220DBE7012084F892
:10476000BC0300BF3146206807F0EBF905F00F00ED
:1047700028B9217C04F57172206807F063F900BF45
:10478000002084F8BC0300BF00BFC3E72DE9F0415F
:1047900004460E461746984606F00F00C0EBC001CF
:1047A00004F13C0000EB8105EF60C5F814800020A7
:1047B000A8610120687006F00F00287020690128A8
:1047C00000D12F6106F00F0028B9227C294620680D
:1047D00007F04CF804E0227C2946206807F0FEF937
:1047E0000020BDE8F0812DE9FE4F044620680290CC
:1047F000029D206807F0DDFB00287DD1206807F0CE
:1048000017FC08B9BDE8FE8F206807F011FC00F026
:104810000200022805D12068406900F002002168EA
:104820004861206807F004FC00F01000102846D111
:104830002068806920F01000216888610298D0F813
:10484000209009F00F00C0EBC00104F5FE7000EBF2
:10485000810BC9F3434002281AD147F6F07009EAE8
:10486000000030B3C9F30A12DBF80C10029807F00D
:10487000E4FBC9F30A11DBF80C000844CBF80C0088
:10488000C9F30A11DBF818000844CBF8180010E04F
:10489000C9F3434006280CD1082204F5717102982F
:1048A00007F0CBFBC9F30A11DBF818000844CBF87A
:1048B00018002068806940F0100021688861206835
:1048C00007F0B6FB00F40020B0F5002F52D100260F
:1048D000206807F07DFB824649E00AF00100E8B35A
:1048E000F1B2206807F097FB804608F0010058B14C
:1048F000012105F5306000E021E200EB4610816007
:10490000314620460CF0D4FD08F00800082809D1F3
:10491000082105F5306000EB4610816031462046E5
:104920000CF094FD08F01000102805D1102105F5B9
:10493000306000EB4610816008F02000202805D18F
:10494000202105F5306000EB4610816008F400502E
:10495000B0F5005F08D14FF4005100E004E005F528
:10496000306000EB46108160761C4FEA5A0ABAF1BB
:10497000000FB2D1206807F05BFB00F48020B0F597
:10498000802F7ED1206807F019FB8246002683E045
:104990000AF0010000287CD0F1B2206807F022FB69
:1049A000804608F00100F0B306F00F0101208840B6
:1049B000019040F634004159019821EA000040F688
:1049C00034014851012105F5106000EB461081606B
:1049D0002069012824D1C6EBC60104F13C0000EB9C
:1049E0008100C6EBC602C16804F13C0000EB820006
:1049F00080680144C6EBC60204F13C0000EB820073
:104A0000C1606EB9C6EBC60104F13C0000EB810049
:104A1000406928B904F571720121206807F012F885
:104A2000F1B2204600E001E0FFF754FD08F0080075
:104A3000082805D1082105F5106000EB46108160BB
:104A400008F01000102805D1102105F5106000EBCA
:104A50004610816008F04000402805D1402105F54E
:104A6000106000EB4610816008F00200022805D1BA
:104A7000022105F5106000EB4610816008F080000F
:104A800001E00DE005E0802803D1314620460CF01E
:104A900081FC761C4FEA5A0ABAF1000F7FF478AF16
:104AA000206807F0C5FA00F00040B0F1004F1CD1BB
:104AB00040F60400405920F0010140F60400415145
:104AC00094F8F403012807D1002084F8F4030021AE
:104AD0002046FFF7CBFC02E0204600F063FA206896
:104AE000406900F0004021684861206807F0A0FAA2
:104AF00000F40060B0F5006F0ED140F60800405998
:104B000000F0010010B1204600F0A4FA20684069CE
:104B100000F4006021684861206807F089FA00F419
:104B20008050B0F5805F7DD140F60400405920F000
:104B3000010140F6040041511021206807F00EFAEF
:104B400000273EE04FF67F3105F5106000EB47107F
:104B5000816005F5106000EB4710006820F400113B
:104B600005F5106000EB4710016005F5106000EBE3
:104B70004710006840F0006105F5106000EB471039
:104B800001604FF67F3105F5306000EB4710816022
:104B900005F5306000EB4710006820F4001105F5C2
:104BA000306000EB4710016005F5306000EB471006
:104BB000006840F0006105F5306000EB47100160CF
:104BC0007F1C6068B842BDD840F61C00405940F0D8
:104BD000011140F61C004151206B70B1D5F88408DA
:104BE00040F00B01C5F8841840F64400405940F0ED
:104BF0000B0140F6440041510FE040F614004059CB
:104C000042F22B01084340F614014851081F405955
:104C100040F00B014FF401604151D5F8000820F439
:104C2000FE6000E00DE0C5F80008217C04F571721B
:104C3000206806F007FF2068406900F48050216872
:104C40004861206807F0F4F900F40050B0F5005F07
:104C500017D1206806F0F2FB206807F097F9E060B2
:104C600000F06EFB0090227B2068009907F030FA7C
:104C7000204600F07FF92068406900F40050216868
:104C80004861206807F0D4F900F00800082808D12E
:104C9000204600F08EF92068406900F00800216885
:104CA0004861206807F0C4F900F48010B0F5801F57
:104CB0000AD100263146204600F043F820684069BA
:104CC00000F4801021684861206807F0B1F900F411
:104CD0000010B0F5001F0AD100263146204600F032
:104CE00039F82068406900F40010216848612068A4
:104CF00007F09EF900F08040B0F1804F08D12046C7
:104D0000FFF7E1FB2068406900F0804021684861BE
:104D1000206807F08DF900F0040004280FD1206806
:104D2000D0F8049009F00400042802D12046FFF7CF
:104D3000F1FB2068406840EA09002168486000BF34
:104D400060E570B504460D462946D4F8040405F024
:104D500051FF70BD70B504460D462946D4F80404D1
:104D600005F04BFF70BD70B58AB0044614B9012040
:104D70000AB070BD266894F8BD0328B9002084F8F5
:104D8000BC03204600F0A2F8032084F8BD03F06BBA
:104D900000F4807008B900212161206806F05EFDF2
:104DA000282204F110016846FCF771F994E80F001D
:104DB00006F058FB20B1022084F8BD030120D7E79C
:104DC0000021206807F04AF9002531E00121C5EBF8
:104DD000C50204F13C0000EB82004170C5EBC50147
:104DE00004F13C0000F82150C5EBC50100EB810047
:104DF000C5800021C5EBC50204F13C0000EB820038
:104E0000C170C5EBC50204F13C0000EB820081607B
:104E1000C5EBC50204F13C0000EB8200C160C5EBAC
:104E2000C50204F13C0000EB82004161681CC5B280
:104E30006068A842CAD800252AE00021C5EBC50257
:104E400004F5FE7000EB82004170C5EBC50104F56E
:104E5000FE7000F821500021C5EBC50200EB820076
:104E6000C170C5EBC50204F5FE7000EB82008160E5
:104E7000C5EBC50204F5FE7000EB8200C160C5EB16
:104E8000C50204F5FE7000EB82004161681CC5B2EA
:104E90006068A842D1D8282204F110016846FCF7C6
:104EA000F6F894E80F0006F0E9FB20B1022084F840
:104EB000BD0301205CE7002084F83800012084F85D
:104EC000BD03206806F0C8FB002051E710B586B08E
:104ED0000446142101A8FCF736F92068B0F1A04F70
:104EE00042D100BF002000902048006840F001003F
:104EF0001E4908600846006800F00100009000BFED
:104F000000BF4FF4C0500190022002900020039097
:104F1000032004900A20059001A91548FEF72EFFF2
:104F200000BF1248001D006840F080000F49091DB5
:104F3000086000BF002000900C481430006840F466
:104F400080400A49143108600846006800F4804037
:104F5000009000BF00BF00BF002211464320FFF7B2
:104F600011FA4320FFF7FEF906B010BD30380240B9
:104F70000000024070B504460125E06808B900252C
:104F800006E0E068022801D1012501E0FDF7E4FA1E
:104F90002946D4F8040405F0ACFED4F8040405F066
:104FA0005FFE70BD10B50446D4F8040405F085FE1C
:104FB00010BD10B50446D4F8040405F089FE10BDF8
:104FC00070B504460D4600BF94F8BC03012801D11A
:104FD000022070BD012084F8BC0300BF84F8385063
:104FE0002946206807F055F800BF002084F8BC036C
:104FF00000BF00BFEDE710B5044604F57171D4F8A9
:10500000040405F08DFE10BD70B50446256800BF90
:1050100094F8BC03012801D1022070BD012084F85E
:10502000BC0300BFA06A012806D1A069012803D0F3
:10503000A86B40F48030A863206806F071FF2068F8
:1050400006F0F8FA00BF002084F8BC0300BF00BFE0
:10505000E3E7000010B50446D4F8040405F0BDFEF3
:105060002068D0F8000E40F001002168C1F8000E61
:10507000206A28B10348006840F006000149086032
:1050800010BD000010ED00E02A49096821F0E001A0
:1050900002681143274A11602749096821F48031C9
:1050A000254A1160111F096821F48031121F116017
:1050B0002149091D096821F480311F4A121D116020
:1050C000111D096821F48031121D1160416801F43D
:1050D0008031B1F5803F07D11749091F096841F4B4
:1050E0008031154A121F1160416801F40031B1F599
:1050F000003F05D11049096841F480310E4A116022
:10510000017901F0010139B10B49091D096841F428
:105110008031094A121D1160017901F00201022952
:1051200007D105490831096841F48031024A083243
:105130001160704700700040043C014001200149AB
:105140000861704700000E4210B5012080F31388FB
:1051500000BFFFF769F910BD10B50648006800F4FC
:10516000803028B1FFF7F0FF4FF48030014908602C
:1051700010BD0000143C014070B504460D460CB94A
:10518000012070BD5848006800F00F00A84209D205
:1051900055490D700846006800F00F00A84201D084
:1051A0000120EEE7207800F0020002281DD12078CF
:1051B00000F00400042805D14C48006840F4E05099
:1051C0004A490860207800F00800082805D14748BF
:1051D000006840F46040454908604448006820F099
:1051E000F000A168084341490860207800F0010000
:1051F000A8B36068012807D13C4808380068C0F3AC
:105200004040B8B90120BCE76068022802D060685D
:10521000032807D1354808380068C0F3406048B912
:105220000120AEE7314808380068C0F3400008B9F3
:105230000120A6E72D48006820F0030061680843BC
:105240002A490860FEF7A8FE064609E0FEF7A4FE1C
:10525000801B41F28831884202D9032091E707E0A0
:105260002248006800F00C006168B0EB810FEDD1BE
:105270001D48006800F00F00A84209D91A490D70B6
:105280000846006800F00F00A84201D0012078E72E
:10529000207800F00400042807D11448006820F4A6
:1052A000E050E168084311490860207800F00800E8
:1052B000082808D10D48006820F46040216940EAC0
:1052C000C1000A49086000F061F808490968C1F3A3
:1052D0000311074A515CC840064908600648006847
:1052E000FEF7D6FF00204CE7003C024008380240A1
:1052F00038770108540500204C0500200F22026079
:105300000D4A126802F0030242600B4A126802F072
:10531000F0028260084A126802F4E052C260064A53
:10532000126802F46042D2080261044A126802F074
:105330000F020A607047000008380240003C02403B
:1053400001480068704700005405002000B5FFF7D1
:10535000F7FF04490968C1F38221034A515CC84040
:1053600000BD0000083802404877010800B5FFF78B
:10537000E7FF04490968C1F34231034A515CC84060
:1053800000BD000008380240487701082DE9F047C9
:10539000002400250026A1462548006800F00C00E6
:1053A00020B1042805D008283AD105E0DFF8849020
:1053B00039E0DFF8849036E01D48001F006800F0F7
:1053C0003F041B48001F006800F4800078B11A48B1
:1053D0001749091F0968C1F38811A0FB0170014634
:1053E000224600233846FBF77FFD05460EE01148B4
:1053F0000F49091F0968C1F38811A0FB017001461C
:10540000224600233846FBF76FFD05460848001F7B
:105410000068C0F30140401C4600B5FBF6F902E00D
:10542000DFF8109000BF00BF4846BDE8F0870000DD
:10543000083802400024F400001BB700F8B5044609
:105440000CB90120F8BD207800F00100002874D0CC
:10545000F948006800F00C0004280DD0F6480068F8
:1054600000F00C00082813D1F348001F006800F476
:105470008000B0F5800F0BD1EF4808380068C0F30A
:105480004040002859D06068002856D10120D9E753
:1054900000BF6068B0F5803F08D1E7480838006871
:1054A00040F48030E449083908601EE06068B0F5D7
:1054B000A02F0DD1E0480838006840F48020DE4974
:1054C000083908600846006840F4803008600CE045
:1054D000D9480838006820F48030D7490839086076
:1054E0000846006820F48020086000BF606890B122
:1054F000FEF752FD054606E0FEF74EFD401B642810
:1055000001D903209EE7CC4808380068C0F340402A
:105510000028F1D011E0FEF73FFD054606E0FEF75A
:105520003BFD401B642801D903208BE7C2480838A3
:105530000068C0F340400028F1D1207800F002005C
:1055400002285FD1BC48006800F00C0058B1BA488E
:10555000006800F00C0008281CD1B748001F006844
:1055600000F48000B0B9B44808380068C0F34000C7
:1055700020B1E068012801D0012063E7AE48083877
:10558000006820F0F800216940EAC100AA49083902
:10559000086037E0E06800B30120A8490860FEF722
:1055A000FBFC054606E0FEF7F7FC401B022801D98C
:1055B000032047E7A04808380068C0F340000028EF
:1055C000F1D09D480838006820F0F800216940EAD1
:1055D000C10099490839086014E000209749086023
:1055E000FEF7DAFC054606E0FEF7D6FC401B022873
:1055F00001D9032026E7904808380068C0F340002E
:105600000028F1D1207800F0080008282CD160692A
:10561000A8B101208A490860FEF7BEFC054606E0F5
:10562000FEF7BAFC401B022801D903200AE7824892
:105630006C300068C0F340000028F1D014E0002076
:105640007F490860FEF7A8FC054606E0FEF7A4FCCB
:10565000401B022801D90320F4E677486C3000682B
:10566000C0F340000028F1D1207800F004000428A5
:1056700070D1002770483830006800F0805090B931
:1056800000BF002000906C483830006840F0805027
:105690006949383108600846006800F08050009081
:1056A00000BF00BF01276748006800F48070B0B9F0
:1056B0006448006840F4807062490860FEF76CFC42
:1056C000054606E0FEF768FC401B022801D90320CE
:1056D000B8E65C48006800F480700028F2D000BF93
:1056E000A068012808D154486830006840F00100E3
:1056F0005149683108601DE0A06805280DD14E4869
:105700006830006840F004004B4968310860084682
:10571000006840F0010008600CE04748683000680D
:1057200020F001004449683108600846006820F014
:105730000400086000BFA068A8B1FEF72DFC054674
:1057400009E0FEF729FC401B41F28831884202D96A
:10575000032077E626E0384868300068C0F3400050
:105760000028EED013E0FEF717FC054608E0FEF730
:1057700013FC401B41F28831884201D9032061E6C5
:105780002D4868300068C0F340000028EFD1012F99
:1057900007D129483830006820F080502649383138
:1057A000086000BFA069002845D02348006800F0C9
:1057B0000C0008285DD0A069022845D100201F49AF
:1057C0000866FEF7E9FB054606E0FEF7E5FB401B31
:1057D000022801D9032035E6174808380068C0F3CD
:1057E00040600028F1D1D4E907010843616A40EA2A
:1057F00081110122A06AC2EB500041EA00412C2035
:10580000005D41EA00600C49091F086001200B4956
:105810000866FEF7C1FB054606E0FEF7BDFB401B30
:10582000022801D903200DE6034808380068C0F3B8
:1058300040600028F1D03FE00838024000004742B5
:10584000800E47420070004000201C490866FEF7A9
:10585000A3FB054606E0FEF79FFB401B022801D98B
:105860000320EFE516480068C0F340600028F2D13D
:1058700022E0A069012800D1E4E51148001D066876
:1058800006F48001E069814214D106F03F01206AEC
:1058900081420FD147F6C0703040616A884209D119
:1058A00006F44031A06A814204D106F07061E06ADA
:1058B000814201D00120C5E50020C3E50000474238
:1058C0000038024010B504460CB9012010BD606AD2
:1058D00000B900BF0021A16294F8510028B900204E
:1058E00084F85000204600F033F8022084F851007C
:1058F0002068006820F0400021680860D4E90101B8
:105900000843E16808432169084361690843218B22
:1059100001F400710843E1690843216A0843A16A60
:105920000843216808600421A06901EA1040616A07
:105930000843216848602068C06920F4006021683D
:10594000C86100206065012084F851000020BDE797
:1059500010B586B00446142101A8FBF7F4FB754985
:10596000206888427ED100BF002000907248006805
:1059700040F48050704908600846006800F4805088
:10598000009000BF00BF00BF002000906A4814389C
:10599000006840F002006849143908600846006851
:1059A00000F00200009000BF00BF00BF0020009088
:1059B0000846006840F0010008600846006800F0F2
:1059C0000100009000BF00BF18200190022002904B
:1059D00001200390032004900520059001A9574859
:1059E000FEF7CCF980200190022002900120039064
:1059F000032004900520059001A95148FEF7BEF947
:105A00005048514908604FF0C060486040214E48FE
:105A100081600021C1604FF480610161002141611A
:105A20008161C1614FF40031016200214162FDF7E3
:105A3000FBFF08B1FCF790FD00BF4348A0648463FE
:105A400000BF40484838414908604FF0C060486096
:105A500000213E488160C1604FF4806101610021F6
:105A6000416100E010E08161C1614FF440310162A9
:105A700000214162FDF7D8FF08B1FCF76DFD00BFC2
:105A80003248E064846353E03149206888424FD152
:105A900000BF002000902848001F006840F48040AC
:105AA0002549091F08600846006800F480400090FE
:105AB00000BF00BF00BF002000901F4814380068DE
:105AC00040F480701C49143908600846006800F4EE
:105AD0008070009000BF00BF00BF0020009008460B
